:020000040800F2
:1000000018810020BD0C0008610C0008630C00087A
:10001000650C0008670C0008690C0008000000006F
:100020000000000000000000000000006B0C000851
:100030006D0C0008000000006F0C00085D06000851
:10004000FD0C0008010D0008050D0008090D000851
:100050000D0D0008110D0008150D0008190D000800
:100060001D0D0008210D0008250D0008290D0008B0
:100070002D0D0008310D0008350D0008390D000860
:100080003D0D0008410D0008450D0008490D000810
:10009000710C0008510D0008550D0008590D00089D
:1000A0005D0D0008610D0008650D0008690D000870
:1000B000C3060008710D0008750D0008790D0008D1
:1000C0007D0D0008810D0008850D0008890D0008D0
:1000D0008D0D0008910D0008950D0008990D000880
:1000E0009D0D0008A10D0008A50D0008A90D000830
:1000F000AD0D0008B10D0008B50D0008B90D0008E0
:10010000BD0D0008C10D0008C50D0008C90D00088F
:10011000CD0D0008D10D0008D50D0008D90D00083F
:10012000DD0D0008E10D0008E50D0008E90D0008EF
:10013000AA480068800409D4A9480068C00705D40B
:10014000A8480068C00501D501207047002070470D
:10015000A2480068800409D5A1480068C00705D5F9
:10016000A0480068C00501D50120704700207047F5
:100170009A480068800409D599480068C00705D4EA
:1001800098480068C00501D40120704700207047DE
:1001900092480068800409D491480068C00705D5DA
:1001A00090480068C00501D50120704700207047C5
:1001B0008A480068800409D589480068C00705D5C9
:1001C00088480068C00501D40120704700207047AE
:1001D0008448006800F4004103E08348006800F0B0
:1001E0000801481E8041C00F70477E48006800F437
:1001F0008041F6E77B48006800F40051F1E7794858
:10020000006800F08001ECE738B500F05AF80121F1
:100210004FF49A7000F02AF903208DF802000420B0
:100220008DF803004FF40054ADF8004000A96F486A
:1002300000F032F90120ADF8000000A96C4800F090
:100240002BF94FF48070ADF800006A4D00F019F8FA
:100250004FF4004000F013F80820ADF8000000A9AA
:10026000654800F019F94FF4804000F008F8ADF847
:10027000004000F006F8802000F001F831BDADF834
:10028000000000A9284600F007B95C49CA7A50541A
:10029000C87A401CC872C0B20A2824BF0020C872A5
:1002A000704756498A7AC87A824201D10020704745
:1002B000505C521C8A72D2B20A2A24BF00228A726F
:1002C00070474E480021418101734D4800EB0112F7
:1002D000642313810223137100239372D372137367
:1002E000491C0A29F2DB64210187052180F83B10B3
:1002F0006421A0F84810052180F84B106421A0F873
:100300005810052180F85B106421A0F868100521C1
:1003100080F86B103B4901603B4901613B49016238
:100320003B4901633B4901643B4901653B49016627
:100330003B4901673B49C0F880103B49C0F8901029
:10034000704770B52E4901EB001400EB40052068A2
:100350008047002820792BD0052838BF052002D3FC
:100360000A2802D2401C207170BD6E1CA07A20B9F0
:100370000120A072F0B2FFF788FF208960B3E18806
:10038000814207D2491CE18089B2814224D1E81C14
:10039000C0B20AE0E07AF8B1217B491C2173C9B2EE
:1003A000814219D300202073F0B2BDE870406CE7A1
:1003B000062828BF052001D210B1401E207108E098
:1003C000A07A012805D10020A072A81CC0B2FFF7B6
:1003D0005CFF0020E080207370BD00000810014029
:1003E00008080140082001400814014000100140A5
:1003F000000801400020014000140140EC000020F2
:100400001C000020310100085101000871010008A2
:10041000D1010008DB010008EB010008F50100082C
:10042000FF01000891010008B101000810B5002487
:100430002046FFF786FF641C0A2CF9D310BD10B4C8
:1004400050F8041B81B102681218001D50F8043BDB
:10045000DC0744BFA9F10104E31852F8044B43F848
:10046000044B091FF9D1EBE710BC7047084A00297B
:10047000116814BF084321EA000010607047054A64
:100480000029116814BF084321EA0000106070477A
:10049000181002401C1002402DE9F0410022CC78D7
:1004A00004F00F03E40644BF8C7823430C88012535
:1004B0000F26E7B217B3D0F800C005FA02F7BE4620
:1004C0000EEA0408F04514D14FEA820E06FA0EF83F
:1004D0002CEA080C03FA0EFE4EEA0C0C91F803E02D
:1004E000BEF1280F08BF476103D0BEF1480F08BF17
:1004F0000761521C082AE0D3C0F800C04FF4807294
:10050000944226D3D0F804C0002202F1080705FA6D
:1005100007F7BE460EEA0408F04515D14FEA820EF1
:1005200006FA0EF82CEA080C03FA0EFE4EEA0C0C42
:1005300091F803E0BEF1280F08BF476191F803E08E
:10054000BEF1480F08BF0761521C082ADDD3C0F86E
:1005500004C0BDE8F08150F8041B61B150F8042BD1
:10056000D30744BFA9F101039A18002342F8043BC2
:10057000091FFAD1EFE7704710B500206D4900243C
:100580000C22424353185C609C605C705454401CC5
:100590000428F5DB684800684FF47A71B0FBF1F08D
:1005A000B0F1807F0AD265490002000A401E48600F
:1005B0006348F02202708C6007200860BDE810409C
:1005C0004DE010B55F4C606828B16068401E606007
:1005D00004BF01202070002056490C2202FB0012AB
:1005E000536853B153685B1E536001BF01235370BE
:1005F0001378012B04BF93685360401C0428ECD38C
:10060000A068401CA060A0686FF00041884204BF51
:100610000020A06000F0B9F86078401C6070C0B2A3
:100620000A2805D300206070BDE8104000F0ABB888
:1006300010BD00B9704710B5012808BF0220012184
:1006400081F310883F4C60600020207080F3108898
:1006500000F09CF820780128FAD110BDB1E700B570
:1006600085B001210120FFF70AFF4FF6FF70ADF8BA
:1006700008003148006840083349B0FBF1F0ADF89C
:1006800004000020ADF80A00ADF8060001A94FF003
:10069000804000F07DF801214FF0804000F0BCF870
:1006A0001C208DF8000004208DF8010000208DF83A
:1006B000020001208DF8030000A800F0E6F805B064
:1006C00000BD10B5214C022100F046F838B100F011
:1006D00047F80022022100F03BF8206880470421FF
:1006E00000F03AF840B1042100F03BF80022042168
:1006F00000F02EF860688047082100F02DF840B126
:10070000082100F02EF80022082100F021F8A0684E
:100710008047102100F020F850B1102100F021F89E
:100720000022102100F014F8E068BDE810400047F6
:1007300010BD0000BC0000201000002010E000E010
:1007400023ED00E00C01002040420F00FC000020DF
:100750004FF0804000F06AB84FF0804000F06EB873
:1007600002214FF0804000F073B8000080B54FF4D4
:10077000407000F085F800F0BFF8FFF745FDBDE8D8
:100780000140FFF7F9BEFFF751BE70477047000008
:1007900030B50488DFF8D820DFF8BC30984218BFA5
:1007A00090420ED0B0F1804F1CBFDFF8B050A8428D
:1007B00007D0DFF8AC50A8421CBFDFF8A850A84211
:1007C00004D14FF68F752C404D882C43DFF898509C
:1007D000A8421CBFDFF89450A84204D04FF6FF4552
:1007E0002C40CD882C4304808C8884850C8804851B
:1007F000984218BF90420AD0DFF8782090421FBF7D
:10080000DFF874209042DFF87420904201D1097A19
:1008100001860121818230BD0029018812BF41F08B
:1008200001014FF6FE72114001807047002A828953
:1008300014BF114322EA0101818170470022038A1B
:10084000808908400B421CBF0028012210467047D7
:1008500000BFC94301827047002C014000040040E2
:1008600000080040000C0040001000400014004050
:100870000034014000400140004401400048014074
:100880001849084318490860704770B503781A463C
:100890000121C478ECB1144B1B6803F4E063C3F589
:1008A000E0631B0A4478C3F10405AC4085780F2649
:1008B00026FA03F32B4023431B010C4C13550078FD
:1008C00042110B4B00F01F0001FA00F043F8220028
:1008D00070BD5011074A03F01F03994042F82010E1
:1008E00070BD00000000FA050CED00E000E400E03F
:1008F00000E100E080E100E010B582B0012180203D
:10090000FFF7B4FD012000F040F8022000F03DF8B0
:10091000032000F03AF8042000F037F803208DF8A7
:10092000020010208DF803004FF40060ADF80000C5
:10093000214C00A92046FFF7AFFD802000F009F808
:100940004FF4807000F005F84FF4007000F001F8EB
:1009500013BDADF8000000A92046FFF79DBD401E65
:100960001649C0B210B94FF400600CE0012808BF6E
:10097000802008D0022808BF4FF4807003D00328DD
:1009800002D14FF4007008607047401E0C49C0B29D
:1009900010B94FF400600CE0012808BF802008D097
:1009A000022808BF4FF4807003D0032802D14FF40F
:1009B0000070086070470000001C0140141C0140DA
:1009C000101C014070B501240025FFF7CFFE02E0A6
:1009D0000120FFF7C4FFFFF7D9FE6DB1002501200C
:1009E000FFF7D3FF0220FFF7D0FF00F07BF800F005
:1009F00076F8E0B2FFF7B3FFFFF753FC0128EADB1C
:100A0000E6D0022818D004281AD005281AD00728C2
:100A10001AD008281AD00A2823D00D2818BF102869
:100A200016D013281DD0162824D0172824D0192812
:100A300024D01C2839D0CEE70120FFF7A6FFCAE753
:100A40000220C6E70220F8E70320C2E70320F4E70C
:100A5000E4B2022C28BF641E0AD2012C08D104245F
:100A600006E0E4B2042C38BF641C01D308BF0124A3
:100A70000125B0E70420ACE70420DEE70120FFF702
:100A800084FF0220FFF781FF00F02CF800F027F828
:100A900003260320FFF763FF00F01EF800F022F8A2
:100AA00000F01AF8761EF4D195E70120FFF76DFFEC
:100AB0000220FFF76AFF00F015F800F010F8032697
:100AC0000420FFF74CFF00F007F800F008F800F0F2
:100AD00003F8761EF4D17EE7FA20FFF7AABD0420C2
:100AE000FFF753BF0320FFF750BF000082B0354827
:100AF000016841F0010101604168334A11404160E1
:100B00000168324A11400160016821F480210160CE
:100B1000416821F4FE0141604FF41F018160002112
:100B200001910091016841F480310160016801F494
:100B3000003100910199491C0191009919B901995D
:100B4000B1F5A06FF2D10168490C01F001010091EB
:100B50000099012930D11E490A6842F010020A604A
:100B60000A68920892000A600A6842F002020A606B
:100B70004168416041684160416841F48061416081
:100B8000416821F47C114160416841F4E811416001
:100B9000016841F08071016001688901FCD54168FC
:100BA000890889004160416841F002014160416863
:100BB00001F00C010829FAD106484FF000610160EC
:100BC00002B07047001002400000FFF8FFFFF6FE81
:100BD0000020024008ED00E080B500F015F80200AA
:100BE0000023DB431068984204D011000220ABBE02
:100BF000002010605068984204D0111D0220ABBE46
:100C00000020506001BD0000004870471400002023
:100C100010B5084979441C31074C7C441A34A14270
:100C200006D0081D0A68511888470146A142F8D12C
:100C300010BD00BF08000000280000001BF9FFFFE6
:100C4000FC0000001C00002000000000F3F7FFFF84
:100C50001C000000980100000000002000000000BF
:100C60007047FEE7FEE7FEE7FEE770477047704714
:100C700001480068704700001C10024000F009F8AD
:100C8000002801D0FFF7C4FF0020FFF79BFE00F013
:100C900002F80120704700F001B80000074638460E
:100CA00000F002F8FBE7000080B5FFF795FF024A6D
:100CB00011001820ABBEFBE7260002000148804768
:100CC00001480047ED0A0008CD0C0008C046C046A8
:100CD000C046C046FFF7D2FFFFF7C2BFFFF7C1BF54
:100CE000FFF7C0BFFFF7BFBFFFF7BEBFFFF7BDBF36
:100CF000FFF7BCBFFFF7BBBFFFF7B0BCFFF7FEBFFE
:100D0000FFF7FEBFFFF7FEBFFFF7FEBFFFF7FEBF17
:100D1000FFF7FEBFFFF7FEBFFFF7FEBFFFF7FEBF07
:100D2000FFF7FEBFFFF7FEBFFFF7FEBFFFF7FEBFF7
:100D3000FFF7FEBFFFF7FEBFFFF7FEBFFFF7FEBFE7
:100D4000FFF7FEBFFFF7FEBFFFF7FEBFFFF790BF45
:100D5000FFF7FEBFFFF7FEBFFFF7FEBFFFF7FEBFC7
:100D6000FFF7FEBFFFF7FEBFFFF7FEBFFFF7A9BC0F
:100D7000FFF7FEBFFFF7FEBFFFF7FEBFFFF7FEBFA7
:100D8000FFF7FEBFFFF7FEBFFFF7FEBFFFF7FEBF97
:100D9000FFF7FEBFFFF7FEBFFFF7FEBFFFF7FEBF87
:100DA000FFF7FEBFFFF7FEBFFFF7FEBFFFF7FEBF77
:100DB000FFF7FEBFFFF7FEBFFFF7FEBFFFF7FEBF67
:100DC000FFF7FEBFFFF7FEBFFFF7FEBFFFF7FEBF57
:100DD000FFF7FEBFFFF7FEBFFFF7FEBFFFF7FEBF47
:100DE000FFF7FEBFFFF7FEBFFFF7FEBF00000000EA
:100DF00000000000010203040607080900A24A04DB
:080E0000FFFFFFFFFFFFFFFFF2
:0400000508000CCD16
:00000001FF
