:020000040800F2
:10000000903F00205D0200082D240008D71400084E
:10001000D1230008EF0F0008753100080000000030
:100020000000000000000000000000006927000838
:100030000512000800000000B5240008552800083B
:1000400077020008770200087702000877020008AC
:10005000770200087702000877020008770200089C
:10006000770200087702000877020008770200088C
:10007000770200087702000877020008770200087C
:10008000770200087702000877020008770200086C
:10009000BD2F0008770200087702000877020008E9
:1000A000770200087702000877020008770200084C
:1000B000412900087702000877020008770200084B
:1000C000770200087702000877020008770200082C
:1000D00077020008D92D0008E92D0008F92D000845
:1000E00077020008770200087702000800F002F8A3
:1000F00000F08BF80AA090E8000C82448344AAF137
:100100000107DA4501D100F080F8AFF2090EBAE834
:100110000F0013F0010F18BFFB1A43F0010318473B
:10012000649A0000849A000010F8013B0A4413F01E
:10013000030408BF10F8014B1D1108BF10F8015B44
:10014000641E05D010F8016B641E01F8016BF9D133
:10015000002D15D010F8014B03F00C030C2BA1EB74
:1001600004040ABF10F8013BA4EB8314A4EB03249E
:1001700005F1010314F8016B5B1E01F8016BF9D561
:10018000914238BF10F8013BD1D3704700230024BF
:1001900000250026103A28BF78C1FBD8520728BF97
:1001A00030C148BF0B607047692900F04581642960
:1001B00000F04281752900F03F816F2900F0D6815F
:1001C000782900F0FB810368DB0928BF41F080013A
:1001D000632900F0BC84E32900F0CF84002070473D
:1001E0001FB59DE8030000F0FBFB00F0ECFA00F007
:1001F00075FD04000020002107F0A0FE401C606097
:1002000000F0BEFB1FBD10B510BD00F042FD114651
:10021000FFF7E6FF07F0DCFA00F064FD03B4FFF738
:10022000F2FF03BC04F069FB0B49D1F800C04A6837
:100230005CF8043B1068184442F8040B8C4528BF56
:10024000A1F1DC0C8A4228BFA1F1DC02C1F800C098
:100250004A6020F000407047283900200948804754
:1002600009480047FEE7FEE7FEE7FEE7FEE7FEE798
:10027000FEE7FEE7FEE7FEE704480549054A064BB0
:1002800070470000E1280008ED00000890390020C8
:10029000903F0020903B0020903B0020704770B5BD
:1002A000064600F081FB056806F10B0020F007040C
:1002B000B4429CBF002070BD2B466A68BAB110687A
:1002C000A04210D304F1080188423CBF5068586036
:1002D00007D35168101941601168091B016058600B
:1002E0001460101D70BD13465268002AE7D12146E4
:1002F000284600F061FB0028DED170BD70B50446D1
:10030000051F00F051FB0068002C14BF446870BD4D
:10031000002C18BFAC423CBF20466468F8D301688B
:100320000A18AA4218BF456003D12A68054611443D
:10033000016028684119A1421CBF6C6070BD6168F2
:10034000696021680844286070BD00000FB41CB5C6
:10035000074B06AA7B4469460090059800F0D5FB40
:100360000020694600F0E4FB1CBC5DF814FB0000B3
:10037000D907000070B5044685690068C10601D53B
:10038000302600E02026C00707D070BDD4E9012147
:1003900030469047206A401C20626D1EF6D570BD25
:1003A00070B5044685690078C00707D170BDD4E9EF
:1003B000012120209047206A401C20626D1EF6D546
:1003C00070BD09684A0501D540B27047C905FCD522
:1003D00000B2704709684A0501D5C0B27047C90527
:1003E000FCD580B2704770B50C460546012A05D091
:1003F0002878800600D5EA69002302E0012305E0A1
:100400005B1C934202D2E05C0028F9D1A869E6188F
:10041000C01AA861286A184428622846FFF7AAFF74
:1004200004E0D5E9012114F8010B9047B442F8D358
:100430002846FFF7B5FF70BD2DE9F04106460024C0
:1004400010687529314616A510D0FFF7BAFF0028AD
:1004500002DA404213A507E031688A0701D512A5E8
:1004600002E0490704D511A5012401E0FFF7B2FF1E
:1004700000210A2206F1240709E0B0FBF2FCB0FBE0
:10048000F2F302FB1C00303078541846491C002857
:10049000F3D123462A463046BDE8F04100F0D6BAF3
:1004A000000000002D0000002B00000020000000D4
:1004B0002DE9FF5F15468A460446DFF8AC80F84414
:1004C0000027D8E900103E46CDE9001010E03AF8C8
:1004D00016106A4602A800F05CFB411C07D0217888
:1004E000890603D5E269391891420DD80744761C74
:1004F0002078800602D5E069B84205DDAE42E6DB31
:100500003AF816000028E2D1A069C01BA06120467D
:10051000FFF730FFD8E90010CDE90010002017E008
:100520003AF818106A4602A800F033FBB0F1FF3F1A
:1005300081460BD000250DF1080B05E0D4E901211F
:100540001BF8050090476D1C4D45F7D308F10100DD
:10055000B0428046E4DB206A384420622046FFF740
:100560001FFFBDE8FF9F00002E89000070B5044604
:1005700021461068FFF72EFF002104F1240505E055
:1005800000F007023032C0086A54491C0028F7D135
:100590002068002307A2050707D5800600D421B1F3
:1005A000E069012304A2401EE0612046BDE87040DE
:1005B00000F04CBA000000003000000070B50446A6
:1005C0000D4621461068FFF705FF2188090502D571
:1005D0000F4A7A4402E00E4A7A440E32002104F1B6
:1005E000240305E000F00F060009965D5E54491CE7
:1005F0000028F7D120780023000704D5702D02D001
:1006000009B1022311322046BDE8704000F01EBA45
:10061000228800002DE9F05F894604464FF0000A69
:10062000DFF874B1FB44C0F820A02046E168884799
:10063000002874D0252806D0D4E901219047206AEB
:10064000401C2062F1E700265F462046E1688847AB
:100650002028054607DB312D05D2781910F8200C2B
:1006600008B10643F1E7B00701D526F00406C4F847
:100670001CA00027C4F818A02A2D09D0284604F091
:1006800035F938B304EB8708303DC8F8185019E045
:1006900059F8041B204604EB87029161E168884702
:1006A000012F054618D1E069002820DA26F020063F
:1006B0001DE0D8F8180000EB800005EB4000303852
:1006C000C8F818002046E1688847054604F00EF98E
:1006D0000028EED1012F0AD02E2D08D12046E16846
:1006E00088477F1C0546022F46F02006C4DBA06920
:1006F000002803DA404246F00106A061F00701D06D
:1007000026F010066C2D0BD0682D09D04C2D39D059
:100710006A2D35D0742D35D07A2D33D016E038E0DF
:10072000E1682F4620468847B842054609D16C2F1C
:1007300026D04FF48060E16806432046884705468E
:1007400004E06C2F1AD04FF4807006430DB3A5F16E
:100750004100192802D8203546F400664A46294649
:10076000204626604E46FFF71FFD80B101280BD0C2
:10077000F61D26F0070000F1080956E74020E4E7DF
:100780008020D8E70020D6E706F104094DE7284687
:1007900052E7206ABDE8F09FF88700000B4910B5CA
:1007A000A1F17C020A4CC2E93712372106E000EBC6
:1007B000104342F82130074B00FB03400B1EA1F110
:1007C0000101F4DC10BD0120E8E70000C83800207A
:1007D000E119D666CD0D010040EA0103024630B5AD
:1007E0009B0710D14FF0013400E008C208C91D1B5F
:1007F0009D4315EAC41FF8D013F0FF0102F8011B56
:100800000DD01B0AF8E711F8013B002B02F8013B61
:1008100005D011F8013B002B02F8013BF3D130BDAC
:1008200010B5431C02E010F8011B71B18107FAD129
:100830004FF0013202C88C1A8C4314EAC211F9D06D
:10084000C01A0A0603D0C01E10BDC01A10BD0A048B
:1008500001D0801E10BD0902FCD0401E10BD032A2D
:1008600040F2308010F0030C00F0158011F8013BCD
:10087000BCF1020F624498BF11F801CB00F8013BB4
:1008800038BF11F8013BA2F1040298BF00F801CB78
:1008900038BF00F8013B11F0030300F09A81083AD9
:1008A000C0F0088051F8043B083A51F804CBA0E8A6
:1008B0000810F5E7121D5CBF51F8043B40F8043BFB
:1008C000AFF30080D20724BF11F8013B11F801CB30
:1008D00048BF11F8012B24BF00F8013B00F801CB01
:1008E00048BF00F8012B70474FF000020429C0F008
:1008F000128010F0030C00F01B80CCF1040CBCF152
:10090000020F18BF00F8012BA8BF20F8022BA1EBA3
:100910000C0100F00DB85FEAC17C24BF00F8012B88
:1009200000F8012B48BF00F8012B70474FF0000280
:1009300000B5134694469646203922BFA0E80C50D5
:10094000A0E80C50B1F12001BFF4F7AF090728BFB0
:10095000A0E80C5048BF0CC05DF804EB890028BF2C
:1009600040F8042B08BF704748BF20F8022B11F055
:10097000804F18BF00F8012B7047704770477047D1
:1009800070B5064C7C44064D7D4403E0206820444D
:100990008047241DAC42F9D170BD00002C930000AB
:1009A0002C93000070470000004870473839002041
:1009B000704770477047704738B504460A460020B4
:1009C0006946AFF30080002808BF38BD0246009991
:1009D000204600F03DF9012038BD012000F052B959
:1009E000F8B5AFF30080054600200C46102000BF8C
:1009F0000646A819A0420DD9324669460020AFF339
:100A00000080070008BF00F03DF90098A04218BF21
:100A10000546C419FFF7C8FF05600746F01D20F022
:100A200007004619284600F00AF8B44208BFF8BD8E
:100A3000A21B31463868BDE8F84000F009B9002132
:100A40000160C0E901107047102070472DE9F047A0
:100A50000D4699469246044600F12408016888062E
:100A600004D5E06921F01001216000E00120A842D6
:100A700001DD471B00E00027A1697A1902EB09009C
:100A8000081AA0612078C00602D42046FFF772FC45
:100A9000002608E0D4E901211AF806009047206AF0
:100AA000401C761C20624E45F4DB2078C0060AD537
:100AB0002046FFF75FFC06E0D4E901213020904793
:100AC000206A401C2062381EA7F10107F4DC07E011
:100AD000D4E9012118F805009047206A401C2062E3
:100AE000281EA5F10105F3DC2046FFF759FC20780C
:100AF000000602D50220BDE8F0870120FBE70000D8
:100B000001694A1C02610878704700B58FB0CDE9D1
:100B100001310021059105497944CDE903101146C1
:100B20006846FFF777FD0FB000BD0000E5FFFFFF4F
:100B30000A6802F8010B0A60704710B5436913B1E7
:100B4000AFF3008001E0FFF74EFC012010BD1278EA
:100B500000F124010A7000224A700122EDE71168B9
:100B60004FF0FF32E9E710B5436913B1AFF30080EE
:100B700001E0FFF79DFC012010BD128800F1240167
:100B800082840022C2840122EDE711684FF0FF3217
:100B9000E9E770B516460C46054600F051F80368C3
:100BA00093F80101012806D0FF2C0FD8185D68B119
:100BB00001202C7070BDD3F807013246214603F2A4
:100BC000071303442846BDE8704018474FF0FF3034
:100BD00070BD10B5203AC0F00B80B1E81850203A33
:100BE000A0E81850B1E81850A0E81850BFF4F5AFCD
:100BF0005FEA027C24BFB1E81850A0E8185044BF57
:100C000018C918C0BDE810405FEA827C24BF51F8C3
:100C1000043B40F8043B08BF7047D20728BF31F8B7
:100C2000023B48BF11F8012B28BF20F8023B48BF08
:100C300000F8012B70470000004870473039002051
:100C400010B500F04BF8001D10BD00BFF1720000A0
:100C5000034640688C46002818BF88423CBF0346C4
:100C60004068F8D318681844884207D00CF1030094
:100C700020F00700001D411A521A0146081D0A60A3
:100C8000FFF73CBB10B500F03BF8BDE8104000F0AA
:100C900032B87546FFF7D0FFAE46050069465346A9
:100CA00020F00700854618B020B5FFF7E5FABDE84B
:100CB00020404FF000064FF000074FF000084FF0C3
:100CC000000B21F00701AC46ACE8C009ACE8C00954
:100CD000ACE8C009ACE8C0098D46704700487047D1
:100CE0005039002010B50446AFF300802046BDE81F
:100CF0001040FFF793BA002801D003F0FEBD704703
:100D000010B5012805D0002103A000F021F8012032
:100D100010BD09A1F8E7000053494752544D454D15
:100D20003A204F7574206F662068656170206D658C
:100D30006D6F7279000000003A2048656170206D87
:100D4000656D6F727920636F72727570746564007F
:100D500070B505460C460A2000E06D1C03F0CFFD7F
:100D600035B128780028F8D102E0641C03F0C7FDF3
:100D700014B120780028F8D1BDE870400A2003F0B3
:100D8000BEBD00004FF0013C50F8042B51F8043B6D
:100D90009A4221D1A2EB0C03934313EACC1317D14F
:100DA00050F8042B51F8043B9A4215D1A2EB0C03E6
:100DB000934313EACC130BD150F8042B51F8043BA6
:100DC0009A4209D1A2EB0C03934313EACC13DBD074
:100DD0004FF00000704700BFD01A01BAB1FA81F19C
:100DE00001F0180122FA01F0CB40C1F12001DBB281
:100DF000C0B2C01A2CFA01F3D11A914311EAC311FF
:100E0000E6D1704721B1826842F00102826003E0BE
:100E1000826822F0010282607047000010B504462B
:100E20001248844208D10121401501F091FB0021B4
:100E3000601501F08DFB17E00D48844208D10121B7
:100E4000001501F085FB0021201501F081FB0BE06E
:100E50000848844208D10121C80301F079FB002130
:100E60004FF4004001F074FB10BD0000002401406D
:100E700000280140003C0140014600208A6802F041
:100E800004020AB1012000E0002070470146C86C4E
:100E900080B270470246002013680B400BB101205E
:100EA00000E000207047014600208A6802F0080236
:100EB0000AB1012000E000207047000030B5024672
:100EC0000020002350680F4C20400D790C6844EA44
:100ED00005242043506090680B4C2040D1E9025417
:100EE0002C434D7944EA450420439060D06A20F4B5
:100EF00070000C7C641EE4B2234340EA0350D062CD
:100F000030BD0000FFFEF0FFFDF7F1FFF0B5044635
:100F10000D4600200021092D11DDE068A5F10A062B
:100F200006EB4607072606FA07F18843A5F10A06ED
:100F300006EB460603FA06F10843E0600CE0206980
:100F400005EB4507072606FA07F1884305EB45063A
:100F500003FA06F108432061072A0FDA606B561E78
:100F600006EB86071F2606FA07F18843561E06EB96
:100F7000860605FA06F10843606322E00D2A0FDABF
:100F8000206BD61F06EB86071F2606FA07F188435B
:100F9000D61F06EB860605FA06F10843206310E02B
:100FA000E06AA2F10D0606EB86071F2606FA07F196
:100FB0008843A2F10D0606EB860605FA06F1084302
:100FC000E062F0BD816841F008018160704721B1A5
:100FD000826842F4A002826003E0826822F4A002E8
:100FE00082607047816841F004018160704700BFF2
:100FF000FEE708B525208DF8000000208DF80200DE
:1010000001208DF80300684601F012FA26208DF8C1
:10101000000001208DF802008DF80300684601F001
:1010200007FA27208DF8000002208DF80200012029
:101030008DF80300684601F0FBF908BD00F080510F
:1010400011B10349086001E002494860704700009F
:10105000040402400000024021B1026842F0010293
:10106000026004E002684FF6FE731A4002607047A7
:1010700001684FF6FE72114001600021016041607D
:101080008160C1604B49884208D14A4908394968A2
:1010900041F00F01474A083A51608AE0454914314E
:1010A000884208D143490839496841F0F001414A72
:1010B000083A51607DE03F492831884208D13D49D6
:1010C0000839496841F470613A4A083A516070E061
:1010D00038493C31884208D136490839496841F4D9
:1010E0007041344A083A516063E0324950318842D5
:1010F00008D130490839496841F470212D4A083A2D
:10110000516056E02B496431884208D12949083999
:10111000496841F47001274A083A516049E025497D
:101120007831884208D123490839496841F0706113
:10113000204A083A51603CE01F49884206D1011F0D
:10114000096841F00F01021F116032E01A491431A1
:10115000884208D11849091F096841F0F001164A70
:10116000121F116025E014492831884208D1124924
:10117000091F096841F470610F4A121F116018E0DD
:101180000D493C31884208D10B49091F096841F4D7
:101190007041094A121F11600BE007495031884223
:1011A00007D10549091F096841F47021024A121F3D
:1011B0001160704708000240080402400146486878
:1011C00080B2704710B50022026847F6F0739A4368
:1011D0000C6A8B6823430C6923434C6923438C6955
:1011E0002343CC6923434C6A23438C6A23431A4329
:1011F0000260CB6843600B6883604B68C36010BDBE
:1012000041607047704700000149C86070470000A6
:101210000020024030B5044604254FF4302000F091
:101220006FF80546042D17D10C48006940F0020004
:101230000A49086108464461006940F040000861BD
:101240004FF4302000F05CF805460448006941F690
:10125000FD71084001490861284630BD0020024068
:1012600004200B49C96801F0010109B101200EE019
:101270000749C96801F0040109B1022007E00449E7
:10128000C96801F0100109B1032000E00420704793
:10129000002002400348006940F0800001490861D5
:1012A000704700000020024070B504460D46042639
:1012B000F00200F025F80646042E11D10948006915
:1012C00040F00100074908612580F00200F018F89D
:1012D00006460448006941F6FE710840014908616C
:1012E000304670BD00200240024803494860034870
:1012F000486070472301674500200240AB89EFCD6D
:1013000000B502460423FFF7ABFF034603E0FFF7F7
:10131000A7FF0346521E012B01D1002AF7D102B9C3
:101320000523184600BD2DE9F041024600250026A0
:10133000002000230024002791F803C00CF00F05C3
:1013400091F803C00CF0100CBCF1000F03D091F821
:1013500002C04CEA050591F800C0BCF1000F31D085
:10136000146800202BE04FF0010C0CFA00F3B1F8E8
:1013700000C00CEA03069E4220D183004FF00F0C00
:101380000CFA03F7BC4305FA03FC4CEA040491F899
:1013900003C0BCF1280F06D14FF0010C0CFA00FC81
:1013A000C2F814C00AE091F803C0BCF1480F05D19F
:1013B0004FF0010C0CFA00FCC2F810C0401C0828C9
:1013C000D1D31460B1F800C0BCF1FF0F34DD546814
:1013D00000202EE000F1080C4FF0010808FA0CF391
:1013E000B1F800C00CEA03069E4221D183004FF001
:1013F0000F0C0CFA03F7BC4305FA03FC4CEA040497
:1014000091F803C0BCF1280F05D100F1080C08FACF
:101410000CF8C2F8148091F803C0BCF1480F07D152
:1014200000F1080C4FF0010808FA0CF8C2F810801F
:10143000401C0828CED35460BDE8F081F0B50A46C0
:10144000002300240021002500F00046B6F1004FE3
:1014500002D11D4EF16901E01B4E7168C0F30345D6
:1014600083B200F44016B6F5401F08D121F0706138
:10147000154E766826F07066134F7E6012E000F419
:101480008016B6F5801F06D1032606FA05F4A1439F
:1014900041F0706106E0460D360103FA06F6B143ED
:1014A00041F0706122B1460D360103FA06F6314370
:1014B00000F00046B6F1004F02D1034EF16101E0A9
:1014C000014E7160F0BD0000000001400AB10161F1
:1014D00000E04161704700BFFEE7000000B585B045
:1014E0000121052001F024F80121880301F020F8F2
:1014F0004FF40070ADF8100018208DF81300032091
:101500008DF8120004A96648FFF70DFF4FF48060C4
:10151000ADF8100004208DF8130004A96048FFF70F
:1015200002FF4FF4E13000900020ADF80400ADF868
:101530000600ADF80800ADF80C000C20ADF80A006C
:101540006946584801F0C4FC012240F22551554833
:1015500001F099FC0121534801F05FFC4021514802
:1015600001F052FC0121052000F0E2FF01214804B6
:1015700000F0BEFF0420ADF8100018208DF8130015
:1015800003208DF8120004A94548FFF7CCFE08207F
:10159000ADF8100004208DF8130004A94048FFF7AF
:1015A000C2FE04A93E48FFF7BEFE4FF4E1300090B2
:1015B0000020ADF80400ADF80600ADF80800ADF865
:1015C0000C000C20ADF80A006946374801F080FC99
:1015D000012240F22551344801F055FC01213248E6
:1015E00001F01BFC4021304801F00EFC01210820D5
:1015F00000F09EFF10208DF8130003208DF81200DC
:101600000420ADF8100004A92848FFF78CFE012142
:10161000092000F08DFF0121880400F069FF4FF4DC
:101620008060ADF8100018208DF8130003208DF8AD
:10163000120004A91D48FFF776FE4FF40060ADF8D4
:10164000100004208DF8130004A91848FFF76BFE62
:1016500004A91648FFF767FE4FF4165000900020CB
:10166000ADF80400ADF80600ADF80800ADF80C00C8
:101670000C20ADF80A0069460D4801F029FC012252
:1016800040F225510A4801F0FEFB0121084801F013
:10169000C4FB4021064801F0B7FB05B000BD0000C7
:1016A000000801400038014000440040000C0140A7
:1016B000004800400448006800F4804008B9012058
:1016C00070470020FCE70000080C014010B500F056
:1016D00009F820B100F012F808B1012010BD002077
:1016E000FCE700000448006800F4807008B901209D
:1016F00070470020FCE7000008080140044800682B
:1017000000F4005008B9012070470020FCE70000F9
:10171000080C01400448006800F4006008B901208A
:1017200070470020FCE700000808014004480068FA
:1017300000F0100008B9012070470020FCE700000D
:10174000080C01400448006800F4805008B90120EA
:1017500070470020FCE700000808014004480068CA
:1017600000F0080008B9012070470020FCE70000E5
:10177000080C01400448006800F4004008B901204A
:1017800070470020FCE700000808014010B5FFF793
:1017900091FF20B1FFF7A6FF08B1012010BD002086
:1017A000FCE7000070B5064610484089401E83B231
:1017B0000E480089401E82B20021084604F04AFE0D
:1017C0000A48C4880DE00948858804E0304600F0E6
:1017D000F3FB681C85B205480089A842F6DC601C52
:1017E00084B202484089A042EDDC70BDE42C0020A8
:1017F0002DE9F84F0746884691461D46DDF828B08A
:10180000E81DC11700EB5171C91009B200914FF0EA
:10181000000A002626E000241CE004F0070020B1A6
:101820004FEA4A604FEA106A09E02046E11704EBEC
:101830005171CA10009906FB012119F801A00AF0A4
:10184000800028B1391988B241460B9A00F001F99D
:10185000601C04B2AC42E0DB701C06B208F101006F
:101860001FFA80F85E45D6DBBDE8F88F2DE9F84316
:1018700004460D4616461F46DDF82080E819401E36
:1018800083B2A019401E82B229462046CDF80080BE
:1018900000F010F9BDE8F8832DE9FC5F06460F461D
:1018A00093469946DDE90CA435480089B0420FDD26
:1018B00033484089B8420BDD062000FB0460401E1F
:1018C000002805D4082000FB0470401E002801D524
:1018D000BDE8FC9F00254EE0052D02D100200190BF
:1018E00005E00BEB8B0027490844405D01904FF069
:1018F00000083BE0019800F00100B8B1012C08D1CC
:1019000007EB080291B2721990B24A4600F0A1F8B2
:1019100025E008FB047291B205FB046290B22346F5
:101920002246CDF80090FFF7A1FF18E0CA4516D077
:10193000012C08D107EB080291B2721990B25246FD
:1019400000F087F80BE008FB047291B205FB04621B
:1019500090B223462246CDF800A0FFF787FF0198FA
:101960004010019008F1010000F0FF08B8F1080FE5
:10197000C0DB681CC5B2062DAEDB00BFA8E70000C7
:10198000E42C0020C4860008F8B504460D4616462F
:101990001F46A019401E82B22B46294620460097BA
:1019A00000F001F8F8BD2DE9FF4F85B081468A4669
:1019B0000020039083460798A0EB09050898A0EB48
:1019C0000A06CDF80890CDF804A0002D01DD01270E
:1019D00005E00DB9002702E04FF0FF376D42002E01
:1019E00002DD4FF0010806E016B94FF0000802E0F2
:1019F0004FF0FF387642B54201DD2C4600E0344618
:101A0000002004901EE0019A91B2029A90B2129ABC
:101A100000F01FF8039828440390B3440398A042B1
:101A200005DD0398001B0390029838440290A345FB
:101A300004DDABEB040B0198404401900498401C7A
:101A400080B20490611C04988842DCDD09B0BDE8D6
:101A5000F08F70B505460E4614463146284604F010
:101A600097FC204600F0A8FA70BD2DE9F843054622
:101A70000E4617469846089C33463A463146284655
:101A80000094FFF790FF43462A46314628460094CB
:101A9000FFF789FF43463A46414628460094FFF740
:101AA00082FF43463A46314638460094FFF77BFFB3
:101AB000BDE8F8832DE9F05F05460E4617469846C7
:101AC000DDF828A04FF0000B781B401C1FFA80FBAC
:101AD000344611E02146284604F05AFC4FF0000934
:101AE00006E0504600F068FA09F101001FFA80F99B
:101AF000D945F6DB601C84B24445EBDDBDE8F09FC0
:101B000008B50121082000F013FD4FF4E050ADF8B6
:101B1000000010208DF8030003208DF802006946B4
:101B20000348FFF700FC01200249086008BD0000DF
:101B3000000C0140B081214208B500200090FFF761
:101B4000DFFF00F085F900F0ABF91121002000F073
:101B500019FA782003F0BEF8B121002000F012FA43
:101B60000121084600F00EFA2C21012000F00AFAAB
:101B70002D21012000F006FAB221002000F002FA27
:101B80000121084600F0FEF92C21012000F0FAF9AD
:101B90002D21012000F0F6F9B321002000F0F2F928
:101BA0000121084600F0EEF92C21012000F0EAF9AD
:101BB0002D21012000F0E6F90121084600F0E2F9AC
:101BC0002C21012000F0DEF92D21012000F0DAF9AE
:101BD000B421002000F0D6F90721012000F0D2F94D
:101BE000C021002000F0CEF9A221012000F0CAF9A6
:101BF0000221012000F0C6F98421012000F0C2F981
:101C0000C121002000F0BEF9C521012000F0BAF981
:101C1000C221002000F0B6F90A21012000F0B2F93B
:101C20000021012000F0AEF9C321002000F0AAF944
:101C30008A21012000F0A6F92A21012000F0A2F952
:101C4000C421002000F09EF98A21012000F09AF9B9
:101C5000EE21012000F096F9C521002000F092F954
:101C60000E21012000F08EF93621002000F08AF9C3
:101C7000C021012000F086F9E021002000F082F967
:101C80000F21012000F07EF91A21012000F07AF9DD
:101C90000F21012000F076F91821012000F072F9DF
:101CA0002F21012000F06EF92821012000F06AF9AF
:101CB0002021012000F066F92221012000F062F9C4
:101CC0001F21012000F05EF91B21012000F05AF9CC
:101CD0002321012000F056F93721012000F052F9AC
:101CE0000021012000F04EF90721012000F04AF9FF
:101CF0000221012000F046F91021012000F042F9F4
:101D0000E121002000F03EF90F21012000F03AF916
:101D10001B21012000F036F90F21012000F032F9DB
:101D20001721012000F02EF93321012000F02AF9BB
:101D30002C21012000F026F92921012000F022F9B0
:101D40002E21012000F01EF93021012000F01AF9A7
:101D50003021012000F016F93921012000F012F99C
:101D60003F21012000F00EF90021012000F00AF9C6
:101D70000721012000F006F90321012000F002F9FB
:101D80001021012000F0FEF82A21002000F0FAF8CE
:101D90000021012000F0F6F80221012000F0F2F805
:101DA0000021012000F0EEF87F21012000F0EAF888
:101DB0002B21002000F0E6F80021012000F0E2F8DD
:101DC0000121084600F0DEF80021012000F0DAF8D9
:101DD0009F21012000F0D6F8F021002000F0D2F879
:101DE0000121084600F0CEF8F621002000F0CAF8E4
:101DF0000021012000F0C6F83A21002000F0C2F8CE
:101E00000521012000F0BEF82921002000F0BAF8D9
:101E100004F0EEFAA02000F05DF8022269460B48BB
:101E200003F0CEFABDF8000018B1BDF80000092893
:101E300006DD0920009002226946044803F0E4FB15
:101E4000BDF80010C8B200F015F808BD00FC00088D
:101E50001CB532204FF4FA610423044ACDE9001086
:101E60000221034803F0E0FA1CBD0000000400401A
:101E7000000C014010B50446052C06DA04EB840082
:101E80004100064800F053FF07E0601F3222504334
:101E9000323081B2014800F04AFF10BD000400401A
:101EA00010B5012009490860322002F013FF00201C
:101EB0000749C1F8AC01322002F00CFF01200349B0
:101EC0000860322002F006FF10BD0000AC81214204
:101ED0000080214210B50446BCB1602C3AD0A02C41
:101EE00025D0C02C49D10020254988708880C88021
:101EF00080200881A0204881022088810120C8819B
:101F0000C021362000F07AF838E000201C498870A3
:101F10008880C88080200881A02048810220888194
:101F20000120C8810021362000F068F826E0012059
:101F30001349887000208880C880A02008818020F4
:101F40004881012088810220C881A021362000F02C
:101F500055F813E001200A49887000208880C88065
:101F6000A020088180204881012088810220C8812A
:101F70006021362000F042F800E000BF00BF10BD35
:101F8000E42C002070B505460C4600200949086085
:101F900025B1012007490839086003E00020054900
:101FA00008390860204603F08DFB012001490860D4
:101FB00070BD0000B081214210B5044600200849E0
:101FC000086001200749C1F8A801201203F07AFB3C
:101FD000E0B203F077FB01200149086010BD00006A
:101FE000B08121420080214210B50348017C0020CD
:101FF000FFF7C8FF10BD0000E42C002070B50446B8
:102000000D4621460020FFF7BDFF29460120FFF7BE
:10201000B9FF70BD10B50446034802880348018823
:10202000204600F04FF810BD2800002026000020B8
:1020300010B504460548028805480188204600F08E
:1020400041F80A2000F066F810BD000028000020CA
:1020500026000020024A1080024A118070470000CA
:102060002600002028000020024A1080024A118029
:10207000704700002A0000202C000020002801DD0D
:10208000014600E00121014A117070472E00002036
:1020900001490870704700002F00002070B5044609
:1020A0000D4616460020FFF7F3FF31462846FFF79E
:1020B000D1FF03E014F8010B00F02CF82078002881
:1020C000F8D170BD70B504460D4616460120FFF7E5
:1020D000DFFF31462846FFF7BDFF03E014F8010B90
:1020E00000F018F820780028F8D170BD2DE9F041F3
:1020F00004460D4616461F46DDF818804146384610
:10210000FFF7B2FF2A4621463046FFF7C7FFBDE87A
:10211000F08100001CB504460A2C0BD12048007841
:102120002049098801EBC0001E49088000201E4993
:10213000088034E00D2C32D0194800781B490988FA
:10214000CDE900101A48038822461648018816482F
:102150000088FFF7A1FB1248007800EB400012490D
:10216000098801EB40001049088012480078B0B19E
:10217000114800890A49097801EB4101A0EB4100AF
:102180000949098888420ADA05480078054909881A
:1021900001EBC000034908800020034908801CBDF2
:1021A0002E00002028000020260000202C00002007
:1021B0002A0000202F000020E42C002010B592B04F
:1021C00000240121084600F083F90121082000F0D5
:1021D000AFF90121880300F08BF93548FEF748FF7D
:1021E000002004903348019033480290102003905F
:1021F00000200A9005908020069040000790800003
:1022000008900020099001A92948FEF7DBFF4FF450
:102210000040ADF8440018208DF8470003208DF8E9
:10222000460011A92548FFF77EF822480C3800F037
:1022300043FA4FF44040ADF830004FF48270ADF8EF
:1022400032004FF40060ADF834000020ADF83600E5
:10225000ADF838004FF40070ADF83A000820ADF842
:102260003C000020ADF83E000720ADF840000CA96E
:1022700010480C3800F05AFA012202210D480C389F
:1022800000F010FA01210B480C3800F0FFF900BFF4
:1022900006E04AF6AA20084921F81400601C84B21E
:1022A000FF2CF6DD00200649088012B010BD0000AA
:1022B000580002400C38004074110020000C01400E
:1022C0000000002070B504464FF4E0454FF4FE4690
:1022D0000023802309E004EA030109B1314600E04C
:1022E000294688B200F064F85B10012BF3DA70BD68
:1022F000F0B50446C4F30725C4F30746E7B23046F9
:10230000FFF7E0FF2846FFF7DDFF3846FFF7DAFF6B
:10231000F0BD00002DE9F04106460D4600240027DF
:102320002148FEF74BFF00283CD100BF05E056F8DE
:102330002400FFF7DDFF601CC4B2AC42F7D3062DCA
:1023400010D2C5F10600C4B20AE0002704E0002064
:10235000FFF7B8FF781CC7B2032FF8DB601CC4B2CC
:10236000AC42F2D3002404E0002000F021F8601C0D
:10237000C4B2142CF8DB00200C49088000210A4864
:10238000FEF76AFE4FF40030FEF758FE05EB4500FD
:10239000C000143081B20448FEF732FF0121024828
:1023A000FEF75AFEBDE8F081580002400000002010
:1023B0000549064A128821F8120004490988491C77
:1023C000024A1180704700007411002000000020B4
:1023D00000BFFEE708B54FF4FC607F239F22002179
:1023E00000900846FFF741FB4FF4FC6020239F223A
:1023F000194600900020FFF7D6FA00214FF6FF7033
:10240000FFF732FE0C22012101A0FFF747FE08BDB5
:1024100020202020202048495442203230313820CA
:102420004753454320202020202000007047000013
:1024300070B5002100230F22C47804B3154C246822
:1024400004F4E064C4F5E064210AC1F10403CA4065
:10245000447804FA03F184781440214309010E4CB6
:102460000678A155047804F01F050124AC400578D6
:102470006D11AD0005F1E025C5F8004109E00478D3
:1024800004F01F050124AC40044D0678761145F890
:10249000264070BD0CED00E000E400E080E100E0CB
:1024A00002490143024A1160704700000000FA052A
:1024B0000CED00E07047000001460020034A506820
:1024C00020F4404008435060704700000010024074
:1024D00029B1064A52690243044B5A6104E0034A97
:1024E00052698243014B5A6170470000001002405C
:1024F00029B1064AD2690243044BDA6104E0034A77
:10250000D2698243014BDA6170470000001002403B
:1025100029B1064A12690243044B1A6104E0034AD6
:1025200012698243014B1A6170470000001002409B
:1025300029B1064A92690243044B9A6104E0034AB6
:1025400092698243014B9A6170470000001002407B
:1025500029B1064AD2680243044BDA6004E0034A18
:10256000D2688243014BDA607047000000100240DD
:1025700030B500210022002400232D4D6D6805F0A8
:102580000C0121B1042905D0082923D105E0294DEA
:10259000056022E0274D05601FE0254D6D6805F4BC
:1025A0007012234D6D6805F48034022505EB9242CC
:1025B0001CB9214D554305600BE01D4D6D6805F4B8
:1025C00000351DB11C4D5543056002E0194D5543C2
:1025D000056002E0174D056000BF00BF144D6D6837
:1025E00005F0F0010909154D6B5C0568DD4045609B
:1025F0000F4D6D6805F4E061090A104D6B5C45688C
:10260000DD4085600A4D6D6805F46051C90A0B4DC7
:102610006B5C4568DD40C560054D6D6805F4404163
:10262000890B074D6B5CC568B5FBF3F5056130BDE3
:102630000010024000127A0000093D0049110020FC
:102640005911002008B501210820FFF771FF032070
:102650008DF8020010208DF803000420ADF8000072
:1026600069460248FEF75FFE08BD0000000C01400D
:10267000704700000420014908607047100C0140B9
:102680000420014908607047140C014021B1028800
:1026900042F04002028004E002884FF6BF731A4005
:1026A000028070471AB183880B43838002E08388DD
:1026B0008B4383807047000010B504461148844264
:1026C00008D101218014FFF743FF0021A014FFF778
:1026D0003FFF16E00C48844208D101210014FFF7A7
:1026E00017FF00212014FFF713FF0AE00748844278
:1026F00007D10121C013FFF70BFF0021E013FFF703
:1027000007FF10BD0030014000380040003C004091
:102710000246002013890B400BB1012000E000208D
:1027200070470146888970478181704710B5002243
:10273000028802F441520B884C8823438C8823433F
:10274000CC8823430C8923434C8923438C8923431E
:10275000CC8923431A430280838B4FF2FF742340BA
:1027600083830B8A038210BD704710B500F002F816
:1027700010BD00000CB500200190009033480068A7
:1027800040F480303149086000BF3048006800F4F0
:10279000003000900198401C0190009818B90198F1
:1027A000B0F5A06FF1D12948006800F4003010B1F5
:1027B0000120009001E0002000900098012843D102
:1027C0002348006840F0100021490860084600686E
:1027D00020F0030008600846006840F0020008602E
:1027E0001A484068194948600846406848600846E9
:1027F000406840F4806048600846406820F47C10DF
:1028000048600846406840F4E810486008460068A0
:1028100040F08070086000BF0C48006800F0007055
:102820000028F9D00948406820F0030007494860B3
:102830000846406840F00200486000BF0348406816
:1028400000F00C000828F9D10CBD00000010024077
:102850000020024010B500F001F810BD10B51B4873
:10286000006840B119480068401E1849086010B956
:10287000012017490870002408E004EB4401154AC0
:1028800002EB810002F0B2FE601CC4B2042CF4DB47
:1028900011480068401C10490860084600686FF045
:1028A0000041884202D100200B49086002F0A4FDDB
:1028B0000A480078401CC0B2084908700A2803DBA7
:1028C0000020087002F094FD10BD000008000020F8
:1028D0000C0000208C130020100000202400002099
:1028E00010B51348006840F001001149086008461F
:1028F0004068104908400E494860084600680E4983
:1029000008400B4908600846006820F480200860F1
:102910000846406820F4FE0048604FF41F008860BD
:10292000FFF723FF4FF000600449086010BD00006E
:10293000001002400000FFF8FFFFF6FE08ED00E087
:1029400010B50221480700F073F858B1022148077A
:1029500000F050F800220221480700F07AF81B48E6
:10296000006880470421080700F062F858B104218C
:10297000080700F03FF800220421080700F069F87A
:102980001348006880470821C80600F051F858B184
:102990000821C80600F02EF800220821C80600F021
:1029A00058F80C48006880471021880600F040F86D
:1029B00058B11021880600F01DF800221021880669
:1029C00000F047F804480068804710BD140000205C
:1029D000180000201C0000202000002021B10288E7
:1029E00042F08002028004E002884FF67F731A40B2
:1029F00002807047CA430282704721B1028842F0C8
:102A00000102028004E002884FF6FE731A40028041
:102A1000704731B1B0F8442042F40042A0F844209D
:102A200005E0B0F84420C2F30E02A0F8442070473D
:102A300030B50246002000230024158A05EA010370
:102A4000958905EA010413B10CB1012000E00020D2
:102A500030BD1AB183890B43838102E083898B43A4
:102A60008381704770B5002400220023058C4FF647
:102A7000FE7635400584028C8388048B4FF68F7573
:102A80002C40B51E2C400D882C43751E2A400D8904
:102A90002A434D882A43144DA8420BD0134DA84217
:102AA00008D0134DA84205D0124DA84202D0124DB5
:102AB000A84213D14FF6F7752A404D892A434FF6A5
:102AC000FB752A408D882A434FF6FF652B404FF651
:102AD000FF552B408D892B43CD892B438380048365
:102AE000CD888586028470BD002C014000340140F1
:102AF0000040014000440140004801400A460021D6
:102B0000018B4FF6F77319401143018370470000A2
:102B100070B5002400220023058C4FF6EF76354077
:102B20000584028C8388048B48F6FF752C404FF691
:102B3000FF452C400D884FF6FF7606EA05252C430D
:102B40004FF6DF752A400D8906EA05152A434D88A0
:102B500006EA05152A43154DA84202D0144DA84295
:102B60001DD14FF67F752A404D894FF6FF7606EA54
:102B700005152A434FF6BF752A408D8806EA0515CC
:102B80002A434FF6FF352B404FF2FF752B408D89BE
:102B900006EA85052B43CD8906EA85052B4383800C
:102BA0000483CD880587028470BD0000002C01409D
:102BB000003401400A460021018B4FF2FF73194097
:102BC0004FF6FF7303EA02231943018370470000A5
:102BD00070B5002400220023058C4FF6FF663540B7
:102BE0000584028C8388848B4FF68F752C404FF6BA
:102BF000FC752C400D882C434FF6FF552A400D895B
:102C00004FF6FF7606EA05252A434D8806EA052594
:102C10002A43154DA84202D0144DA8421DD14FF2AF
:102C2000FF752A404D894FF6FF7606EA05252A43AF
:102C30004FF6FF352A408D8806EA05252A434EF6D1
:102C4000FF752B404DF6FF752B408D8906EA051563
:102C50002B43CD8906EA05152B4383808483CD88D9
:102C60008587028470BD0000002C014000340140C3
:102C70000A460021818B4FF6F77319401143818377
:102C80007047000070B5002200230024058C4EF62A
:102C9000FF7635400584038C8488828B48F6FF7567
:102CA0002A404FF6FF452A400D884FF6FF7606EA88
:102CB00005252A434DF6FF752B400D8906EA05359B
:102CC0002B434D8806EA05352B430B4DA84202D015
:102CD0000A4DA84208D14BF6FF752C408D894FF65E
:102CE000FF7606EA85152C4384808283CD88A0F880
:102CF0004050038470BD0000002C014000340140AE
:102D00000A460021818B4FF2FF7319404FF6FF7383
:102D100003EA022319438183704700210180418027
:102D20008180C180018141818181C1817047A0F88A
:102D300040107047002202881D4B98420ED01D4B58
:102D400098420BD0B0F1804F08D01B4B984205D071
:102D50001A4B984202D01A4B984204D14FF68F7307
:102D60001A404B881A43174B984207D0164B98428B
:102D700004D04FF6FF431A40CB881A4302808B8859
:102D800083850B8803850A4B98420BD0094B9842E8
:102D900008D00E4B984205D00D4B984202D00D4BF7
:102DA000984201D10B7A0386012383827047000089
:102DB000002C0140003401400004004000080040A5
:102DC000000C004000100040001400400040014092
:102DD000004401400048014010B5024800F0F4F8FA
:102DE00010BD00006C14002010B5024800F0ECF893
:102DF00010BD0000941C002010B5024800F0E4F85B
:102E000010BD0000BC24002001F40072B2F5007F68
:102E100000D100BFCA430280704721B1828942F4C9
:102E20000052828104E082894DF6FF731A4082814C
:102E3000704770B50246002400230025002040F6AC
:102E40006A16B14200D100BFC1F3421501F01F0361
:102E5000012606FA03F3012D02D19689334006E0DC
:102E6000022D02D1168A334001E0968A33400C12BB
:102E7000012606FA04F41688344013B10CB101207F
:102E800000E0002070BDF0B50346002400260025B8
:102E9000002040F66A17B94200D100BF1846C1F3BE
:102EA000421401F01F06012707FA06F5012C01D193
:102EB0000C3004E0022C01D1103000E014301AB1C3
:102EC00007682F43076002E00768AF430760F0BD63
:102ED0002DE9F04786B005460E460024A24600BF05
:102EE000A1460027B08900B100BF2F462C8A4CF6BE
:102EF000FF700440F08804432C82AC894EF6F31036
:102F00000440B08831890843718908430443AC8187
:102F1000AC8A4FF6FF400440B0890443AC8201A85C
:102F2000FFF726FB1F48874202D1DDF810A001E021
:102F3000DDF80CA0A88900F4004040B10AEBCA00FB
:102F400000EB0A1031684900B0FBF1F807E00AEB2A
:102F5000CA0000EB0A1031688900B0FBF1F8642068
:102F6000B8FBF0F004012009642101FB1089A88955
:102F700000F4004040B1322000EBC900B0FBF1F09A
:102F800000F00700044308E0322000EB0910642140
:102F9000B0FBF1F000F00F0004432C8106B0BDE857
:102FA000F08700000038014001468888C0F308001F
:102FB0007047C1F308028280704700000148C06971
:102FC000704700000010024070B5044640F22551E1
:102FD0002068FFF72EFFE0B12068FFF7E5FFC5B2DC
:102FE000E18AA0684554E08A401C80B2E082E18911
:102FF000884201DB0020E082608BE189884202DAAE
:10300000608B401C6083606A10B12846616A884703
:1030100000BF40F227712068FFF70BFF08B3A08ABA
:1030200060B9002240F227712068FFF72CFF0122CF
:1030300040F226612068FFF726FF37E0638A626866
:10304000D15C2068FFF7B5FF608A401C80B26082C7
:10305000A189884201DB00206082A08A401EA082F4
:1030600024E040F226612068FFF7E3FEF0B1A08A79
:1030700050B9002240F226612068FFF704FF206A61
:10308000A0B1206A804711E0638A6268D15C206841
:10309000FFF78FFF608A401C80B26082A18988425E
:1030A00001DB00206082A08A401EA08270BD00006B
:1030B00021482249086022484860224888604FF42D
:1030C00080608881C881002008824882C882088385
:1030D00048838882C861086248621B481B490860AF
:1030E0001B4848601B4888604FF480608881C88115
:1030F000002008824882C882088348838882C86189
:103100000862486214481549086015484860154827
:1031100088604FF480608881C881002008824882DE
:10312000C8820883488388820F48C8610F480862B4
:103130000F48486270470000003801406C140020BE
:10314000941400209418002000440040941C002097
:10315000BC1C0020BC20002000480040BC240020F3
:10316000E4240020E42800207526000881260008B9
:103170007126000800BFFEE77047000010B5124836
:1031800000F084FD01F05AFE0446012C02D10E48E5
:1031900000F06EFD0D2C02D10B4800F04DFD102CFF
:1031A00002D1094800F04FFD042C02D1064800F07E
:1031B00058FD132C02D1044800F04CFD162C02D10E
:1031C000014800F05CFD10BD142D00202DE9F04FEA
:1031D00097B0954800F083FB82460AF10700C0B221
:1031E0000E900024904800F074FB072801DB0720B4
:1031F00002E08D4800F06DFB054600200D908A48E6
:1032000000F067FB0646884800F07FFC8146484690
:1032100005F046F8CDE90801701E05F02AF8CDE961
:103220000401284605F03CF8074600227F4B05F0D4
:103230004BF800227E4BCDE9000105F045F8CDE9C1
:103240000201DDE9042304F08FFECDE90601DDE98A
:10325000082305F039F8CDE90A0104F0DDFFC0B21A
:103260000C900024704800F03AFB824671480078C8
:10327000A84215D06F48057000205E230522212149
:1032800000909A20FEF7F2FA0020009005EB45002E
:10329000800000F128017E239E220320FEF70AFC15
:1032A000614800F01CFB07465F4800F037F9804694
:1032B000394600F08CFDB0F1000B6FD000BF5846CE
:1032C00000F05EFD00286AD0584600F062FD00283C
:1032D00073D0584600F06FFDFF2809DA584600F019
:1032E0006AFD554951F8207039460FA8FDF774FA68
:1032F0004D4800F092FBA04260D10020009004EB0A
:103300004400800000F128014FF478434BA20320D1
:10331000FEF7ECFE0020009004EB4400800000F17A
:1033200028014FF478430FAA0F20FEF7DFFEAE42CC
:1033300066DD00BF00205E230422212100909B2037
:10334000FEF794FA4FF4FC607E239A22212100902C
:103350001046FEF728FB701BC7B2F81D602191FBD9
:10336000F0F0C7B2B9F1000F09D14FF4FC603B4651
:103370000422212100909B20FEF778FA1CE0701EA9
:1033800048450DD14FF4FC600090C7F1800081B238
:103390003B4604229B20FEF769FA0DE041E035E050
:1033A0004FF4FC60009007FB09F0213081B23B46EE
:1033B00004229B20FEF75AFA22E019E00020009038
:1033C00004EB4400800000F1280100231BA203202D
:1033D000FEF78CFE0020009004EB4400800000F11A
:1033E00028014FF4FC630FAA0F20FEF77FFE07E0D1
:1033F000584600F0D7FC18B12146584600F0DEFCD4
:103400000AF1010000F0FF0A601CC4B20121584615
:1034100000F09CFCB0F1000B03D00E988245FFF643
:103420004EAF17B0BDE8F08F142D00200000F03F24
:1034300000001C40E0040020500F00202D3E000042
:10344000014691F84200C0F3C00008B10120704766
:103450000020FCE790F8421021F0080180F84210AB
:10346000704710B5044694F84300C0F3800008B9D3
:103470006069804710BD01468868A8B191F8440092
:1034800000F0010070B111F8440F20F00200087044
:10349000087820F080000870002041F83C0C443986
:1034A000012070470020FCE70020FAE710B5044631
:1034B000A06818B1A06800F07EFC10BDFF20FCE7FA
:1034C00010B50446A068A0B194F84400C0F34000D1
:1034D00068B994F8440040F0020084F844002046A3
:1034E000FFF7BFFF204600F015F8012010BD0020B7
:1034F000FCE794F8440020F0020084F84400002027
:10350000F4E7014691F84200002801DD01207047F0
:103510000020FCE7002180F842107047014648680F
:10352000704770B50446606800F060FC68B194F8BC
:10353000430040F0800084F84300606800F056FCCF
:1035400005462946204600F070F870BD2DE9F0418F
:103550000446A068002866D1204600F046FB94F897
:1035600029100844C6B23146606800F030FC0546B8
:10357000284600F0FBFB50B1284600F00AFC30B1B1
:1035800094F84300C0F3800008B9A5604BE02846DA
:1035900000F008FC60B194F84300C0F3800038B933
:1035A0000021204600F016F9204600F0B7F93AE075
:1035B0000021284600F00BFCA8B32DE0284600F0BF
:1035C000DFFB20B994F8430000F0010020B320464F
:1035D00000F00BFB94F829100844C7B23946606824
:1035E00000F0F5FB06463146204600F01EF894F840
:1035F0004300C0F3800070B92046FFF78BFF2046E0
:1036000000F0A5F984F836000021204600F0E2F829
:10361000204600F083F905E00021284600F096FBE3
:10362000051ECBD100BFBDE8F0812DE9F041044675
:103630000D46656094F837000A2853DA94F8430081
:10364000C00910BB94F8291094F8372004F11F002A
:10365000815494F82A1094F837200C3081540020BB
:1036600004F82A0F607B401C6073607B2A3C0A28A8
:1036700007DA606800F09FFB94F8372004F1380106
:103680008854002084F829002CE03734207B20F077
:103690008000207314F83709002823DD14F8370F51
:1036A000401E207014F8371904F12B00405C84F898
:1036B0002A0094F8371004F11F00405C84F82900B8
:1036C00094F82900A17F88420CDB94F82910A07F90
:1036D000401E0E1A002703E0204600F0B9F87F1CB8
:1036E000B742F9DBBDE8F08110B50446A06860B1CF
:1036F00014F8440F40F002002070207840F00100E0
:1037000004F84409204600F0D1FA2046FFF702FFF2
:103710002534E07F20F00400E077E07F20F0010016
:10372000E077E07F20F00200E07754F8250C44F8C1
:10373000210C0020A0742074207160716077253CFA
:103740000021204600F046F8A06878B10020A06073
:1037500094F84300C0F3800010B9204600F0DEF872
:1037600094F8440020F0800084F8440010BD014625
:1037700091F84200C0F3800008B10120704700209A
:10378000FCE7014691F84200C0F3400008B1012077
:1037900070470020FCE7014691F84200C0F340105A
:1037A00008B1012070470020FCE790F8421021F09A
:1037B000040180F84210704790F8421021F0020195
:1037C00080F84210704790F8421021F0200180F8F4
:1037D000421070472DE9F0410446884694F82A507B
:1037E000A07F94F82A100844C6B22946606800F009
:1037F000EEFA071E05D094F8430040F0400084F82C
:103800004300204600F06FF8BDE8F081014691F8D2
:103810004200C0F3001008B1012070470020FCE70F
:10382000014691F8420000F0010008B10120704704
:103830000020FCE790F8421021F0100180F84210BF
:10384000704790F8421021F0010180F84210704753
:1038500010B5044604E094F82900401E84F82900BD
:1038600094F82900002806DD94F82910606800F01B
:10387000AEFA0028EFD0A07F94F82A10084494F8FC
:10388000291088420DDC14F82A0F401C2070607E3D
:103890002A3CC0F38000D8B900212046FFF79AFFE8
:1038A00016E094F8290094F82A1088420DDA14F8EA
:1038B0002A0F401E2070607E2A3CC0F3800038B979
:1038C00000212046FFF786FF02E0204600F00BF8BB
:1038D00010BD014691F83600401CC0B27047014649
:1038E00091F82A00704710B50446204600F02FF8E2
:1038F0002934607320786178401A2073207B617BC3
:10390000293C884203DD94F8360084F8350094F8A9
:10391000430040F0200084F8430010BD10B5044679
:10392000A06870B194F8440000F0010048B994F820
:103930004300C0F3C00020B994F84300C0F38010E6
:1039400020B1206980472046FFF7E4FD10BD70B527
:10395000044600250021606800F039FA061E11D0E7
:1039600000BF304600F00CFA20B994F8430000F094
:10397000010008B1681CC5B20121304600F0E6F92B
:10398000061EEED10DB9002070BD681EC0B20546FE
:10399000FAE7F8B506460C461546002322461946B6
:1039A0003046009500F03DF8F8BD70B504460D4670
:1039B000A06880B194F8440040F0010084F844000D
:1039C000204600F073F994F8440020F0800084F859
:1039D00044000020A0602046FFF79CFD14F8440F2F
:1039E00020F004002070207820F001002070207862
:1039F00020F0020004F84409002604E02046FFF706
:103A000090FD701CC6B2AE42F8DB00212046FFF7E5
:103A1000E1FE2046FFF782FF70BD014691F83500B8
:103A200070472DE9F84304460D4616461F46DDF85B
:103A300020804FF0000914F8430F40F0010020707F
:103A4000207840F0040004F843092046FFF74CFEBC
:103A500035B1012D0FD0022D03D0032D15D10BE070
:103A600000BF00200090334602462046216800F047
:103A700056F881460AE000BF009700230122204645
:103A8000216800F04CF8814600E000BF00BFB9F1AA
:103A9000010F2ED194F8430020F0040084F8430075
:103AA00035B1012D05D0022D0FD0032D0FD10DE022
:103AB00000BF94F8440040F0800084F8440084F88B
:103AC00045802046FFF742FD09E000BF00BF00210E
:103AD0002046FFF77FFE2046FFF720FF00BF00BF14
:103AE00094F8430020F0010084F843000120BDE871
:103AF000F88314F8430F20F004002070207820F0A1
:103B0000010004F843090020F1E710B504462046FF
:103B100000F06BF894F829100844C0B210BD2DE9EC
:103B2000F84F04460F4615469846DDF82890BA46E9
:103B30000026A068002854D100BF504600F01DF9AF
:103B4000404500D135B1504600F035F9484503D124
:103B5000012D01D101263AE00021504600F037F94D
:103B600038B32046FFF7F2FC0021504600F02FF951
:103B7000834643462A4659462046CDF80090FFF733
:103B8000CEFF06461EBB2046FFF7CBFC2046FFF7C4
:103B9000DEFE293460732078617B293C884216DA86
:103BA00094F82900401C84F829002046FFF750FEB5
:103BB0000DE094F8290094F83610884207DA94F85A
:103BC0002900401C84F829002046FFF741FE01210E
:103BD000504600F0BBF8B0F1000A03D0002EACD084
:103BE00000E000263046BDE8F88F2DE9F04104469C
:103BF000002500260021606800F0E9F8071E18D0B3
:103C000000BF384600F0BCF820B994F8430000F03B
:103C1000010010B1701CC6B205E094F82900B04252
:103C200001DB681CC5B20121384600F08FF8071E81
:103C3000E7D12846BDE8F08190F8421041F0080134
:103C400080F84210704790F8421041F0040180F86B
:103C50004210704790F8421041F0020180F8421083
:103C6000704790F8421041F0200180F842107047F0
:103C700090F8421041F0100180F84210704790F81F
:103C8000421041F0010180F842107047014691F85E
:103C90004300C0F3001038B991F8430040F0100021
:103CA00081F84300012070470020FCE770B504460E
:103CB000A06888B194F84400C00928B194F8451070
:103CC000A06800F07BF807E0A06800F08CF80546DB
:103CD0002946A06800F072F870BD0146886840B1BE
:103CE00091F8440000F0010008B90120704700205D
:103CF000FCE70020FAE700002DE9F04104460D46FC
:103D0000DDE90778069E256020686060002084F861
:103D1000430084F8440084F8350084F83700E077E5
:103D200084F83600A277581E60770020A060A06457
:103D30000548E06426616761C4F80C802046FFF7FF
:103D4000E9FB2046BDE8F08100E1F50530B5044609
:103D50000D460DB9204630BDA06828B16A1ED1B20B
:103D6000A068FFF7F3FFF6E70020F4E70146C86814
:103D700008B9002070470120FCE70146C868704779
:103D800010B50446206910B12069804710BD01209C
:103D9000FCE70146887D00F0010008B10120704772
:103DA0000020FCE70146887DC0F3400008B10120F7
:103DB00070470020FCE70146087D704770B5044657
:103DC0000D46E06810B12846E168884770BD30B5FF
:103DD00004460D46606820B129466068FFF7B6FFCB
:103DE00030BD0020FCE70146487D70470146086869
:103DF00008B1086870470846FCE770B5DDE904457E
:103E00000026066086604660017542758375C46051
:103E1000056170BD80F31088704700000EB500206A
:103E2000009003460246FF210190FE48FFF7E5FFA0
:103E3000FD48FE49FE4A1A23CDE9002102900722DF
:103E4000F849FC48FFF758FF002000900123024684
:103E500001460190F848FFF7D0FF002000900123B1
:103E6000024619460190F548FFF7C7FF0020F449C4
:103E700001230246CDE900100221F248FFF7BDFF01
:103E80000020F14901230246CDE900100321EF484B
:103E9000FFF7B3FF0020EE4901230246CDE90010F1
:103EA0000421EC48FFF7A9FF0020009001230246FF
:103EB00005210190E848FFF7A0FF002000900123B2
:103EC000024606210190E548FFF797FF0020009089
:103ED0000123024607210190E148FFF78EFF0020F1
:103EE000E04901230246CDE900100821DE48FFF732
:103EF00084FF0020DB4901230246CDE9001009219F
:103F0000DA48FFF77AFF0020D64901230246CDE9BF
:103F100000100A21D648FFF770FF0020D149012385
:103F20000246CDE900100B21D248FFF766FF0020C2
:103F3000CC4901230246CDE900100C21CE48FFF701
:103F40005CFF0020C74901230246CDE900100D2186
:103F5000CA48FFF752FF0020C24901230246CDE9BB
:103F600000100E21C648FFF748FF0020BD4901237D
:103F70000246CDE900100F21C248FFF73EFF0020A6
:103F8000B84901230246CDE900101021BE48FFF7D1
:103F900034FF0020B34901230246CDE9001011216E
:103FA000BA48FFF72AFF0020AE4901230246CDE9B7
:103FB00000101221B648FFF720FF0020A949012375
:103FC0000246CDE900101321B248FFF716FF00208A
:103FD000A44901230246CDE900101421AE48FFF7A1
:103FE0000CFF00209F4901230246CDE90010152156
:103FF000AA48FFF702FF00209A4901230246CDE9B3
:1040000000101621A648FFF7F8FE0020954901236D
:104010000246CDE900101721A248FFF7EEFE00206E
:10402000904901230246CDE9001018219E48FFF770
:10403000E4FE00208B4901230246CDE9001019213E
:104040009A48FFF7DAFE0020864901230246CDE9AF
:1040500000101A219648FFF7D0FE00208149012365
:104060000246CDE900101B219248FFF7C6FE002052
:104070007C4901230246CDE900101C218E48FFF740
:10408000BCFE0020774901230246CDE900101D2126
:104090008A48FFF7B2FE0020724901230246CDE9AB
:1040A00000101E218648FFF7A8FE00206D4901235D
:1040B0000246CDE900101F218248FFF79EFE002036
:1040C000684901230246CDE9001020217E48FFF710
:1040D00094FE0020634901230246CDE9001021210E
:1040E0007A48FFF78AFE00205E4901230246CDE9A7
:1040F000001022217648FFF780FE00205949012355
:104100000246CDE9001023217248FFF776FE002019
:10411000544901230246CDE9001024216E48FFF7DF
:104120006CFE00204F4901230246CDE900102521F5
:104130006A48FFF762FE00204A4901230246CDE9A2
:10414000001026216648FFF758FE0020454901234C
:104150000246CDE9001027216248FFF74EFE0020FD
:10416000404901230246CDE9001028215E48FFF7AF
:1041700044FE00203B4901230246CDE900102921DD
:104180005A48FFF73AFE0020364901230246CDE99E
:1041900000102A215648FFF730FE00203149012344
:1041A0000246CDE900102B215248FFF726FE0020E1
:1041B0002C4901230246CDE900102C214E48FFF77F
:1041C0001CFE0020274901230246CDE900102D21C5
:1041D0004A48FFF712FE0020224901230246CDE99A
:1041E00000102E214648FFF708FE00201D4901233C
:1041F0000246CDE900102F214248FFF7FEFD0020C6
:10420000184901230246CDE9001030213E48FFF74E
:10421000F4FD0020134901230246CDE900103121AD
:104220003A4875E0FC2C00207D3100087931000807
:10423000CD310008142D00206C2D0020842D00208D
:10424000FD7200089C2D002049690008B42D002053
:10425000AD6F0008CC2D0020E42D0020FC2D0020A7
:10426000142E0020BD6500082C2E0020442E0020B6
:104270005C2E0020742E00208C2E0020A42E002006
:10428000BC2E0020D42E0020EC2E0020042F002075
:104290001C2F0020342F00204C2F0020642F0020E2
:1042A0007C2F0020942F0020AC2F0020C42F002052
:1042B000DC2F0020F42F00200C30002024300020C0
:1042C0003C300020543000206C300020843000202E
:1042D0009C300020B4300020CC300020E43000209E
:1042E000FC300020143100202C310020443100200B
:1042F0005C310020743100208C310020A43100207A
:10430000BC310020D4310020EC31002004320020E8
:10431000FFF773FD0020FE4901230246CDE900109E
:104320003221FC48FFF769FD0020F94901230246CC
:10433000CDE900103321F848FFF75FFD0020F44974
:1043400001230246CDE900103421F448FFF755FD62
:104350000020EF4901230246CDE900103521F04845
:10436000FFF74BFD0020EA4901230246CDE900108A
:104370003621EC48FFF741FD0020EB4901230246BE
:10438000CDE900103721E948FFF737FD0020E64965
:1043900001230246CDE900103821E548FFF72DFD45
:1043A0000020E14901230246CDE900103921E1480E
:1043B000FFF723FD0020E04901230246CDE900106C
:1043C0003A21DE48FFF719FD0020DB4901230246B0
:1043D000CDE900103B21DA48FFF70FFD0020D64958
:1043E00001230246CDE900103C21D648FFF705FD28
:1043F0000020D14901230246CDE900103D21D248D9
:10440000FFF7FBFC0020CC4901230246CDE9001058
:104410003E21CE48FFF7F1FC002000900123024628
:104420003F210190CA48FFF7E8FC002000900123DB
:10443000024640210190C748FFF7DFFC00200090B2
:104440000123024641210190C348FFF7D6FC00201A
:1044500000900123024642210190C048FFF7CDFCA5
:10446000002000900123024643210190BC48FFF741
:10447000C4FC002000900123024644210190B94869
:10448000FFF7BBFC0020009001230246452101906C
:10449000B548FFF7B2FC00200090012302464621F8
:1044A0000190B248FFF7A9FC0020009001230246CA
:1044B00047210190AE48FFF7A0FC002000900123A7
:1044C000024648210190AB48FFF797FC002000907E
:1044D0000123024649210190A748FFF78EFC0020E6
:1044E0000090012302464A210190A448FFF785FC71
:1044F00000200090012302464B210190A048FFF7C5
:104500007CFC00200090012302464C2101909D4834
:10451000FFF773FC00200090012302464D2101901B
:104520009948FFF76AFC00200090012302464E21C3
:1045300001909648FFF761FC00200090012302469D
:104540004F2101909248FFF758FC00200090012372
:104550000246502101908F48FFF74FFC0020009049
:1045600001230246512101908B48FFF746FC0020B1
:10457000009001230246522101908848FFF73DFC3C
:104580000020009001230246532101908448FFF748
:1045900034FC002000900123024654210190814800
:1045A000FFF72BFC002000900123024655210190CB
:1045B0007D48FFF722FC002000900123024656218F
:1045C00001907A48FFF719FC002000900123024671
:1045D000572101907648FFF710FC0020009001233E
:1045E0000246582101907348FFF707FC0020009015
:1045F00001230246592101906F48FFF7FEFB00207E
:104600000090012302465A2101906C48FFF7F5FB08
:1046100000200090012302465B2101906848FFF7CB
:10462000ECFB00200090012302465C2101906548CC
:10463000FFF7E3FB00200090012302465D2101907B
:104640006148FFF7DAFB00200090012302465E215B
:1046500001905E48FFF7D1FB002000900123024645
:104660005F2101905A48FFF7C8FB0020009001230A
:104670000246602101905748FFF7BFFB00200090E1
:1046800001230246612101905348FFF7B6FB002049
:10469000009001230246622101905048FFF7ADFBD4
:1046A0000020009001230246632101904C48FFF74F
:1046B000A4FB002000900123024664210190494898
:1046C000FFF79BFB0020009001230246652101902B
:1046D0004548FFF792FB0020009001230246662127
:1046E00001904248FFF789FB002000900123024619
:1046F000672101903E48FFF780FB002000900123D6
:104700000246682101903B48FFF777FB002073E0E9
:10471000BD6500081C320020343200204C320020DD
:10472000643200207C320020ED64000894320020C6
:10473000AC320020C432002001720008DC320020BC
:10474000F43200200C330020243300203C330020BE
:10475000543300206C330020843300209C3300202D
:10476000B4330020CC330020E4330020FC3300209D
:10477000143400202C340020443400205C34002009
:10478000743400208C340020A4340020BC34002079
:10479000D4340020EC340020043500201C350020E7
:1047A000343500204C350020643500207C35002055
:1047B00094350020AC350020C4350020DC350020C5
:1047C000F43500200C360020243600203C36002032
:1047D000543600206C360020843600209C360020A1
:1047E000B4360020CC360020E4360020FC36002011
:1047F000143700202C370020009001230246692145
:1048000001902F48FFF7F9FA00200090012302469B
:104810006A2101902B48FFF7F0FA00200090012355
:1048200002466B2101902848FFF7E7FA002000902C
:10483000012302466C2101902448FFF7DEFA002094
:104840000090012302466D2101902148FFF7D5FA1F
:1048500000200090012302466E2101901D48FFF7C1
:10486000CCFA00200090012302466F2101901A48E3
:10487000FFF7C3FA00200090012302467021019047
:104880001648FFF7BAFA0020009001230246712172
:1048900001901348FFF7B1FA00200090012302466F
:1048A000722101900F48FFF7A8FA00200090012321
:1048B0000246732101900C48FFF79FFA0EBD0000DD
:1048C000443700205C370020743700208C370020EC
:1048D000A4370020BC370020D4370020EC3700205C
:1048E000043800201C3800203438002030380A28D2
:1048F00001D2012070470020704700BF704700BF01
:1049000070472DE9F04707468846164697F800900D
:104910000024ABE00025A4E022462946404600F0F2
:10492000CAF800B19BE04FF0000A082E10D2DFE871
:1049300006F004101C2733465B75281900EBD07174
:104940004910A0EB410109B9012100E000218A468C
:104950007DE0204604EBD0714910A4EB410109B978
:10496000012100E000218A4671E0032095FBF0F16F
:1049700000FB115008B9012000E00020824666E0EB
:104980002819032190FBF1F201FB120008B9012064
:1049900000E0002082465AE0032295FBF2F2214615
:1049A00004EBD17302EB630000EBD0725210A0EB6A
:1049B00042020AB9012200E00022924647E005FBCC
:1049C00004F1032291FBF2F302FB131205FB04F046
:1049D00000EBD0714910A0EB4101114409B901214C
:1049E00000E000218A4632E005FB04F2032392FB3B
:1049F000F3FC03FB1C2305FB04F101EBD172521005
:104A0000A1EB4202981800EBD0725210A0EB4202C8
:104A10000AB9012200E00022924618E005FB04F2E8
:104A2000032392FBF3FC03FB1C22291901EBD17336
:104A30005B10A1EB4303D01800EBD0725210A0EB37
:104A400042020AB9012200E00022924600BF00BFE4
:104A5000534622462946384600F06DF800BF681CD0
:104A6000C5B24D45FFF658AF601CC4B24C45FFF6C9
:104A700051AFBDE8F087F0B50B4614460168651EDE
:104A80006AB214E0856805EBD1052D7823FA02F6A9
:104A900006F0010601F00707C7F10707BE403543DE
:104AA000866806EBD1063570551E6AB2491C002A8D
:104AB000E8DA0160F0BD70B50346186802FB001427
:104AC000986800EBD400007804F00705C5F10706EC
:104AD0000125B540284008B1012070BD0020FCE749
:104AE0000146C81DC0F3CF007047014601FB01F02D
:104AF000C21DD01702EB5070C0F3CF00704770B5E5
:104B000004460D46164600202060A680A560A188B8
:104B10002846FBF7E9FE70BD70B504460D46164603
:104B200026603046FFF7E1FFA080A560A1882846F7
:104B3000FBF7DAFE70BD2DE9F0410C46076802FB79
:104B4000074101F00707C7F1070C012707FA0CF727
:104B5000FDB2876807EBD1073F7801F0070CCCF175
:104B600007084FF0010C0CFA08FC07EA0C070FB11C
:104B7000012700E000273E4686EA03075FB1876809
:104B800007EBD1073F782F43D0F808C00CEBD10CCE
:104B90008CF800700AE0876807EBD1073F78AF43D5
:104BA000D0F808C00CEBD10C8CF80070BDE8F08197
:104BB000F0B50C46066802FB064101F00706C6F197
:104BC00007070126BE40F5B24BB1866806EBD10659
:104BD00036782E43876807EBD1073E7008E0866879
:104BE00006EBD1063678AE43876807EBD1073E70F7
:104BF000F0BD0000F0B5034698180F4FB84201D938
:104C00000320F0BD0AB90020FBE7012600240BE0D9
:104C10001D780878A84204D0FF2D01D00220F0E7CB
:104C200000265B1C491C641C9442F1D3012E01D167
:104C30000020E6E70120E4E700000108F8B505469A
:104C40000C46284600F014F906460121FDF770FCD9
:104C5000ADF8004010208DF8030003208DF802000D
:104C600069462846FCF75FFBF8BD00002DE9F843D4
:104C700006460D4614469846304600F0F9F80746B9
:104C80000121FDF755FC1148844202D010488442AE
:104C900007D1204600F020F907460121FDF748FC26
:104CA00006E0204600F018F907460121FDF720FC38
:104CB000ADF8005018208DF8030003208DF8020095
:104CC00069463046FCF72FFBBDE8F883002C014015
:104CD0000034014010B5044604B910BD012C00D1C8
:104CE00002240120FFF796F80948046000200949D2
:104CF0000870FFF78FF806E000F059F905480078D2
:104D0000012800D100E0F7E700BF00BFE5E70000A1
:104D1000080000200C00002070B50546304800EB6C
:104D200005142068804700283ED02079052802DA43
:104D30000520207152E020790A2803DA2079401CEE
:104D400020714BE0A07A38B90120A07205EB450133
:104D5000491CC8B200F024FB208900283EDDE08811
:104D6000218988420DDAE088401C80B2E0802189E8
:104D7000884233D105EB4501C91CC8B200F010FBD5
:104D80002CE0E07A002829DD207B401CC0B2207393
:104D9000E17A884222DB0020207305EB4501491CA3
:104DA000C8B200F0FDFA19E02079052802DD0520DF
:104DB000207110E0207918B12079401E20710AE09E
:104DC000A07A012807D10020A07205EB4501891CBB
:104DD000C8B200F0E5FA0020E080207370BD00004A
:104DE000BC13002010B50723012203210848FCF75B
:104DF0008DF801210648FCF7EAF800BF02210448BB
:104E0000FCF748F80028F9D00148FCF73FF810BD3E
:104E10000024014070B504460025002607E0FFF796
:104E2000E1FF05440520FFF755FF701CC6B2A642FE
:104E3000F5DBB5FBF4F080B270BD00000B48807A62
:104E40000A4AD27A904201D1002070470748807AFE
:104E5000064A115C1046807A401CC0B290720A2843
:104E600001DB002090720846EFE700005C14002090
:104E700001460020114A914201D104201CE0104A51
:104E8000914201D1082017E00E4A914201D1102031
:104E900012E00D4A914201D120200DE00B4A9142CF
:104EA00001D1402008E00A4A914201D1802003E06C
:104EB000084A914200D1881570470000000801405F
:104EC000000C014000100140001401400018014096
:104ED000001C01400020014001460020244A91426C
:104EE00001D1C81442E0234A914201D148143DE067
:104EF000214A914202D14FF4002037E01F4A9142EB
:104F000002D14FF4801031E01D4A914202D14FF49A
:104F100000102BE0B1F1804F01D1012026E0194AA9
:104F2000914201D1022021E0174A914201D104208F
:104F30001CE0164A914201D1082017E0144A914220
:104F400001D1102012E0134A914201D120200DE03E
:104F5000114A914201D1402008E0104A914201D10A
:104F6000802003E00E4A914200D18815704700006E
:104F7000002C014000340140004C01400050014031
:104F8000005401400004004000080040000C0040B4
:104F9000001000400014004000180040001C0040B9
:104FA0000020004001460020880A800270477047B8
:104FB00010B54FF44070FDF773FA00F087F800F079
:104FC00089F900F0D7F900F047F900F005F8FCF78F
:104FD000B3FDFDF7F3F810BD00B587B001214FF424
:104FE0000170FDF7A5FA4FF40040FDF765FA0820BF
:104FF000ADF8040000208DF8070001A91748FCF760
:1050000092F91748FBF70AFF002002908DF80C0078
:105010008DF80D004FF460200490002005900120D1
:105020008DF8180002A90E48FBF748FF01210C4833
:10503000FBF7E8FE0A48FBF7C5FF00BF0848FBF78F
:1050400032FF0028FAD10648FBF7CCFF00BF044826
:10505000FBF712FF0028FAD107B000BD000801409D
:10506000002401407FB501210846FDF741FA1548AB
:10507000006846081448B6FBF0F085B24FF6FF749E
:10508000ADF80840ADF804500020ADF80A00ADF8C6
:10509000060001A94FF08040FDF74CFE0121880772
:1050A000FDF7ABFC1C208DF8000004208DF80100FA
:1050B00000208DF8020001208DF803006846FDF7FE
:1050C000B7F97FBD6011002040420F0010B500F01D
:1050D00057F800F001F810BD08B501210D20FDF7CB
:1050E00027FA01212348FCF7A9F903208DF80200D3
:1050F00048208DF803004FF48040ADF80000694669
:105100001D48FCF710F94FF48070ADF800006946B7
:105110001A48FCF708F94FF40050ADF80000694652
:105120001548FCF700F94FF40060ADF8000069463F
:105130001248FCF7F8F81020ADF8000069460E4858
:10514000FCF7F1F84FF48050ADF8000069460B48C9
:10515000FCF7E9F80820ADF8000069460648FCF7BE
:10516000E2F84FF40040ADF8000069460348FCF750
:10517000DAF808BD00023000000C014000080140D0
:105180000021294A9172D1721173002018E0642124
:10519000264A02EB001211810221244A02EB00127E
:1051A00011710021214A02EB001291721F4A02EB99
:1051B0000012D1721D4A02EB00121173411CC8B2D9
:1051C0000A28E4DB64221949A1F84820052281F865
:1051D0004B206422A1F85820052281F85B2064222C
:1051E000A1F86820052281F86B206422A1F87820BC
:1051F000052281F87B200E490C4A11600D4911618E
:105200000D4911620D4911630D4911640D49116574
:105210000D4911660D4911670D49C2F880100D49FD
:10522000C2F89010704700005C140020BC130020EE
:10523000B5160008E5160008FD1600081517000849
:105240002D170008451700085D170008751700089E
:105250008D170008CD16000808B501210803FDF7D9
:1052600067F901210420FDF763F918208DF8030088
:1052700003208DF802002020ADF800006946134895
:10528000FCF751F84020ADF8000069460F48FCF7E4
:105290004AF88020ADF8000069460C48FCF743F856
:1052A0004FF4417000F0AAF80948808B4FF2FF716B
:1052B0000840074988830720088200210448FDF739
:1052C000E5F901210248FDF7E1F908BD00080140B8
:1052D0000030014070B5002416E0002004EB4401CA
:1052E000204A02EB8101486004EB440102EB81019A
:1052F000886004EB440102EB8101487004EB440137
:1053000002F82100601CC4B2042CE6DB16480068D9
:105310004FF47A72B0FBF2F1B1F1807F00D31DE05F
:1053200021F07F40401E4FF0E022506150170F22C5
:10533000002807DA13071E0E0C4B00F00F052D1F77
:105340005E5503E013071D0E094B1D5400BF0020DE
:105350004FF0E02290610720106100BFFFF782FE4E
:1053600070BD00008C1300206011002018ED00E0DB
:1053700000E400E010B5FDF79BFEFCF7AFF8FDF789
:1053800061F9FBF736FE10BD10B5002404E020469D
:10539000FFF7C2FC601CC4B20A2CF8DB10BD000091
:1053A0000649C97A054A50541146C97A491CC9B2FE
:1053B000D1720A2901DB0021D17270475C140020F0
:1053C00030B503469818094DA84201D9012030BDD7
:1053D0000AB90120FBE7002404E013F8010B01F8EF
:1053E000010B641C9442F8D30020F0E70000010890
:1053F00010B5FFF7C9FF10BD7047000009490988C3
:1054000001F441510143074A1180114609884FF6C2
:10541000BF721140034A11801146098841F04001D2
:1054200011807047003001402DE9FF4F87B083465F
:1054300014461D46DDE9146ABAF1000F0FD10021B0
:105440002046FDF7DAFA58460899FFF7F7FB0022E5
:1054500058460899FCF73AF80BB0BDE8F08F42F2D5
:10546000107082450DD100212046FDF7C6FA58463E
:105470000899FFF7E3FB012258460899FCF726F844
:10548000EAE72B46224658460899FFF7EFFB5148BA
:1054900084420BD05048844208D05048844205D002
:1054A0004F48844202D04F48844203D14E48D0F83E
:1054B000008002E04C48D0F80080642E0AD242F20C
:1054C0000F7942F21070B8FBF0F0B0FBF6F0401E1E
:1054D00087B213E040F6B830864209D24FF0630934
:1054E0006420B8FBF0F0B0FBF6F0401E87B205E098
:1054F0004FF00009B8FBF6F0401E87B2ADF814700B
:10550000ADF810900020ADF81600ADF812008DF83F
:10551000180004A92046FDF70DFC6846FDF7FDFBC9
:105520006020ADF800000120ADF802000AFB07F092
:1055300042F21071B0FBF1F080B2ADF8060000202D
:10554000ADF80800ADF80400ADF80A00ADF80C00A5
:10555000ADF80E00012D08D169462046FDF782FA0C
:1055600008212046FDF7CAFA1FE0022D08D169463E
:105570002046FDF7CDFA08212046FDF71BFB14E07D
:10558000032D08D169462046FDF722FB082120465D
:10559000FDF76EFB09E0042D07D169462046FDF7B3
:1055A00071FB08212046FDF7ABFB01212046FDF7EA
:1055B00015FA01212046FDF720FA0648844202D060
:1055C0000548844203D101212046FDF722FA00BF9D
:1055D00042E70000002C014000340140004C014033
:1055E000005001400054014060110020416851B159
:1055F0004168491E416031B901214170017801299A
:1056000001D18168416070472DE9F05F0746884607
:1056100014464FF0040938192949884202D901205B
:10562000BDE8F09F0CB90020FAE704F0010008B1D2
:105630000120F5E7224641463846FFF7DBFA0646E9
:105640000EB90020ECE7012080F3108800BFFBF7C3
:105650004BFE3520FBF7D8FD022E0BD13846FFF765
:10566000A1FC8346FBF7D6FD8146B9F1040F01D0BA
:105670000220D5E7002512E018F815A06800401CAC
:1056800018F800004AEA002A51463846FBF70CFE9B
:105690008146B9F1040F00D004E0BF1C6D1CB5EBCE
:1056A000540FE9D300BFFBF7F5FD002080F310880D
:1056B00000BFB9F1040F00D1B2E70220B0E700004B
:1056C0000000010810B5044600BF02210948FDF79B
:1056D0001FF80028F9D021460648FDF725F800BF3D
:1056E00001210448FDF714F80028F9D00148FDF71E
:1056F00018F810BD003001402DE9F04786B004468F
:105700000D4616461F46DDE90F9ADDF83880324611
:10571000414603A8FAF71AFE3B4603AA294620464B
:10572000CDE9009A00F051F806B0BDE8F0872DE908
:10573000F04F85B00746884691461C46DDF838B0E4
:10574000032002F01FF904900498FAF7A8FD82469E
:1057500003231A46514601A8CDF8009002F00EFA34
:105760004FF6FF7000909DF8050000FB04F300FB6E
:1057700004F241463846FCF779F800251BE0002684
:1057800013E02A46314601A802F004F958B105FB9E
:10579000048291B206FB047290B223462246CDF8F1
:1057A00000B0FCF763F8701CC6B29DF80500B0426B
:1057B000E7DC681CC5B29DF80500A842DFDC504656
:1057C000FAF79CFD05B0BDE8F08F2DE9FC470646D1
:1057D000884614461F46DDE90A9A012F04D0032F9C
:1057E00004D0042F06D103E0062503E0082501E0DC
:1057F000082500BF00BF0BE00120CDE900A014F890
:10580000012B4B4641463046FCF746F8701986B2EC
:1058100020780028F0D1BDE8FC872DE9FF4F81B04A
:10582000824616461F466FF001052AE06FF001041C
:1058300023E0A946B4F1000801DB424601E0C8F1CB
:1058400000021146B9F1000F01DB4A4601E0C9F13F
:105850000002104601F0C2FF012801D0012000E043
:105860000020834600907819C3B23019C2B2504666
:10587000029902F01DFA601C44B2022CD9DD681CAA
:1058800045B2022DD2DD05B0BDE8F08F2DE9F74F0E
:1058900084B08246164630680390B06802909AF849
:1058A000007000257C1E47E0062C00D105244FF037
:1058B00000083DE04FF0000933E0A4EB090000F0E0
:1058C000FF0B012020EA5400BBF1060F01DA012191
:1058D00000E0002148400190019818B1781EA0EB2B
:1058E000080000E04046C0B200905946009A059872
:1058F000FFF7E1F898B90398854210D2029800EBBF
:10590000D500007805F00701C1F10701084100F05A
:10591000010359465046009AFFF74AF96D1C09F1F8
:105920000109B9F1020FC8DB08F1010000F0FF081E
:10593000B845BFDBA01E04B2012CB5DA07B0BDE844
:10594000F08F2DE9FF4F83B08146924699F8000011
:1059500002906FF003053BE06FF0030434E0AB46C8
:105960000194002C01DB019A01E0019A5242114698
:10597000BBF1000F01DB5A4601E0CBF100021046FB
:1059800001F02CFF00F0FF080AEB04060698471907
:10599000002E17DB0298864214DA002F12DB0298E1
:1059A00087420FDAB8F1020F04D0B8F1040F01D02A
:1059B000012000E00020FBB2F2B2009048460499BA
:1059C00002F076F9601C44B2042CC8DD681C45B2B4
:1059D000042DC1DD07B0BDE8F08F2DE9F84F8046FA
:1059E0008B4691469A4698F800604AEAC9042746D1
:1059F000002006E0790A40F23752514381EA470716
:105A0000401C0A28F6DB47EA842445F21240444051
:105A100000250CE024FA05F000F001002B460822D6
:105A200059460090404602F043F9681CC5B2052D66
:105A3000F0DDC4F380100723082259460090404649
:105A400002F036F9C4F3C01008231A4659460090F4
:105A5000404602F02DF9C4F30020082307225946DE
:105A60000090404602F024F909250EE024FA05F0E2
:105A700000F001000090C5F10E00C2B208235946A3
:105A8000404602F015F9681C45B20F2DEEDB0025EB
:105A90000EE024FA05F000F001000090701E401B9B
:105AA000C2B208235946404602F002F9681C45B2CA
:105AB000072DEEDD08250FE024FA05F000F00100C7
:105AC0000090A6F10F002844C3B208225946404670
:105AD00002F0EEF8681C45B20F2DEDDB01200090BE
